:020000040800F2
:10780000B0F10020E17900085BA20008B7A00008F1
:1078100059A20008B389000861A800080000000010
:1078200000000000000000000000000061A200084D
:107830003F8A0008000000005DA2000865A2000861
:10784000FB790008FB790008FB790008FB79000848
:10785000FB790008FB790008FB790008FB79000838
:10786000FB790008FB790008FB790008FB79000828
:10787000FB790008FB790008FB790008FB79000818
:10788000FB790008FB790008FB790008FB79000808
:10789000FB790008FB790008FB790008FB790008F8
:1078A000FB790008C9A20008FB790008FB790008F1
:1078B000FB790008FB790008FB790008FB790008D8
:1078C000FB790008FB790008FB790008FB790008C8
:1078D000FB7900088DA70008FB79000899A700082C
:1078E000FB790008FB790008FB790008FB790008A8
:1078F000FB790008FB790008FB790008FB79000898
:10790000FB790008FB790008FB790008FB79000887
:10791000FB790008FB790008FB790008FB79000877
:10792000FB790008FB790008FB790008FB79000867
:10793000DFF810D000F056FE00480047A1F502081D
:10794000AFF30080B0F10020224B19680868B0E85E
:10795000F00F80F30988BFF36F8F4FF0000080F3C2
:1079600011884EF00D0E70470000000006480068B8
:10797000006880F3088862B661B6BFF34F8FBFF32B
:107980006F8F00DF00BF00BF08ED00E0EFF309805C
:10799000BFF36F8F0F4B1A6820E9F00F106008B526
:1079A0004FF0100080F31188BFF34F8FBFF36F8F3C
:1079B0002FF052FF4FF0000080F31188BDE808401F
:1079C00019680868B0E8F00F80F30988BFF36F8F7B
:1079D000704700BF18010020EFF3058070470000DA
:1079E0000648804706480047FEE7FEE7FEE7FEE759
:1079F000FEE7FEE7FEE7FEE7FEE7FEE7C7A20008B8
:107A0000317900082DE9F05F0546002092469B463B
:107A100088460646814640241BE0284641464746A4
:107A2000224600F020F853465A46C01A914110D31E
:107A300011461846224600F0D3FB2D1A67EB0108C9
:107A40004F4622460120002100F0CAFB17EB000937
:107A50004E41201EA4F10104DFDC484631462A468F
:107A60004346BDE8F09F202A04DB203A21FA02F0C9
:107A70000021704721FA02F3D040C2F12002914068
:107A8000084319467047A0F14101192900D8203058
:107A9000704710B5431A934209D28318881803E03F
:107AA00010F8011D03F8011D521EF9D210BD40EA65
:107AB00001039B0703D009E008C9121F08C0042A6C
:107AC000FAD203E011F8013B00F8013B521EF9D253
:107AD00010BDD2B201E000F8012B491EFBD2704765
:107AE0000022F6E710B513460A4604461946FFF78A
:107AF000F0FF204610BD30B505462A460B4612F869
:107B0000010B13F8014B08B1A042F8D01CB10028BA
:107B100002D06D1CF1E7284630BD10B5044604E0E4
:107B20000B7800F8013B03B1491C521EF8D22046E5
:107B300010BDCAB2401E10F8011F8A4202D00029AF
:107B4000F9D100207047421C10F8011B0029FBD11D
:107B5000801A704710B5002200E0521C835C8C5CD8
:107B6000A34201D1002BF8D1D8B2E1B2401A10BD26
:107B700030B504460020034600E05B1C934203D26C
:107B8000E05CCD5C401BF8D030BD034611F8012B02
:107B900000F8012B002AF9D11846704730B5054688
:107BA0000020034600E05B1C934205D2EC5CC85CFD
:107BB000201A01D1002CF6D130BD00000FB400B561
:107BC0008DB010A909900B9000914FF0FF300A90F2
:107BD00000200C9005480690054807906A4609A8C1
:107BE0000F9900F02FFB0DB05DF814FB61820008C7
:107BF0007F8200082DE9FF5F1D464FF0FF3BD5E96E
:107C0000014691465F464FF00008A9697F1C019824
:107C10008847296A824688470028F6D1BAF1FF3F93
:107C20000CD024F4C064002E19DD600614D5BAF11E
:107C30002B0F09D0BAF12D0F0ED103E0584604B036
:107C4000BDE8F09F44F48064A9697F1C01988847CF
:107C5000761E8246002E02DDBAF1300F03D0B9F154
:107C6000000F26D032E0A969761E44F400747F1C10
:107C7000019888478246002E05DDBAF1780F06D0BC
:107C8000BAF1580F03D0B9F1000F10D01EE0B9F1CE
:107C9000000F02D0B9F1100F18D1A969761E24F493
:107CA00000747F1C019888478246102002E008205B
:107CB00000E00A20814609E008FB0908A969761E50
:107CC00044F400747F1C019888478246002E05DD2D
:107CD0004946504600F0A1FA0028EDDAE96901981A
:107CE0008847A00502D46FF00100A8E7E00725D17E
:107CF000600613D5600502D5C8F1000000E04046DB
:107D000029680A1D2A600968220501D5087015E056
:107D1000220701D5088011E008600FE02868011DE6
:107D200029600068210502D580F8008006E021075F
:107D300002D5A0F8008001E0C0F8008038467EE758
:107D40002DE9F05F93460F4680460446002602F078
:107D500045FED0F80090824614F8015B2DB100F08A
:107D60004FFA0068405DC007F6D12B2D02D02D2DB3
:107D70001AD0641E0021CAF800105A46394620461F
:107D800000F08EFA014627B13868A04201D1C7F849
:107D90000080DAF80000022809D0CAF800907005C7
:107DA00005D54842BDE8F09F46F48066E2E7084604
:107DB000F8E7F0B480EA0102D40F4200B2EB410FC1
:107DC00002D20246084611464A0042D0C30DDDB237
:107DD000C1F3C752AD1A202D35DAC1F3160141F4B3
:107DE000000204B15242C5F1200602FA06F12A410E
:107DF0001044B3EBD05F23D0C4B1012DA0EBC3502E
:107E000009DCF0BC4FF0004202EAC352DBB200F5DD
:107E1000000000F09DBA400000F1807000EBC350FC
:107E2000A0F1807040EAD170490009E0490841EAB8
:107E3000C071A0EBC35000F50000400800EBC35038
:107E4000F0BC00F07CBA6142012202EB4101001B50
:107E5000F6E7F0BC704781F00041AAE780F00040EF
:107E6000A7E730B480EA010202F0004530F000429A
:107E700021F0004013D090B1C30DD40DC2F3160110
:107E8000C0F31600E41A41F4000140F400027D340E
:107E9000914201D3641C00E04900002C02DA30BC9E
:107EA000002070474FF400000023914201D3891A4B
:107EB000034340084FEA4101F7D151B1914202D149
:107EC0004FF0004105E002D24FF0010101E06FF0F8
:107ED000010103EBC450284430BC00F030BA2DE956
:107EE000FE4F81EA030404F0004421F000410094B5
:107EF0004FF0000B23F0004350EA01045ED052EA39
:107F000003045BD0C3F30A54C1F30A552C44A4F212
:107F1000F3340194A0FB0254C1F3130141F4801126
:107F2000C3F3130343F4801301FB024400FB034E2D
:107F3000840A970A44EA815447EA8357A4FB0768F6
:107F400002958D0A05FB07854FEA932C04FB0C5420
:107F50002705029D4FEA065847EA1637B5EB080594
:107F60006EEB070C870E920E47EA811742EA8312E6
:107F7000A7FB0201B6EB0B0164EB00042B0D43EAF7
:107F80000C335E1844EB1C50DA465146E7FB020105
:107F9000C5F313044FEA0B3343EA14534FEA043298
:107FA000019C43EA0603A4F10C040294009CCDE971
:107FB00000B400F00AFA03B0BDE8F08F00200146DB
:107FC000F9E72DE9F04D81EA030404F0004B21F0BC
:107FD000004514464FF0000A23F0004150EA050224
:107FE00020D054EA01021DD0C5F30A570246C5F35A
:107FF0001303C1F31300C1F30A5640F4801543F490
:108000008013A7EB0608101BD64608F2FD3873EB69
:10801000050002D308F1010801E092185B41B8F1B4
:10802000000F03DA00200146BDE8F08D00204FF478
:108030008011064684460EE0171B73EB050705D337
:10804000121B63EB050306434CEA010C49084FEA97
:10805000300092185B4150EA0107EDD152EA03006B
:1080600012D082EA040083EA0501084305D0101B00
:10807000AB4106D20122002306E000224FF000436C
:1080800002E06FF0010253101AEB06004CEB0851AE
:1080900010EB0A0041EB0B01BDE8F04D00F086B992
:1080A000C10F80EAE0700844CA079623002100F05F
:1080B0004FB996230022114600F04AB90EB5C10F00
:1080C00080EAE0700844CA07002140F233438DE89B
:1080D0000E000A460B4600F078F903B000BD0EB55D
:1080E00040F2334102910021CDE900110A460B46CE
:1080F00000F06BF903B000BD20F00040C10DC0F3EB
:10810000160040F400007F2901DA0020704796290C
:1081100003DCC1F19601C84070479639884070472A
:10812000C1F30A5210B5C1F3130140F2FF3341F419
:1081300080119A4201DA002010BD40F233439A4286
:10814000A2F2334203DC5242FFF78DFC10BD904097
:1081500010BD000030B5041E71F1000404DB4FF0C7
:108160000044404264EB0101141E73F1000405DB7E
:108170001C464FF00043524263EB04038B4208BF9E
:10818000824230BD30B5041E71F1000404DB4FF0B3
:108190000044404264EB0101141E73F1000405DB4E
:1081A0001C464FF00043524263EB0403994208BF60
:1081B000904230BD30B50B460146002020220124FC
:1081C00009E021FA02F59D4205D303FA02F5491BA5
:1081D00004FA02F52844151EA2F10102F1DC30BDBB
:1081E000202A04DB203A00FA02F100207047914077
:1081F000C2F1200320FA03F31943904070470000B6
:108200000048704720F8030810B50446FFF7F8FF50
:108210000068005D00F0010010BD3A2800D230383F
:1082200020F02002412A01D3A2F13700884201D375
:108230004FF0FF307047000002681144137801606E
:1082400018467047D1600449516104491162002108
:108250001161114600F0EAB939820008098200086C
:10826000426842B1016811F8013B23B1521EC0E9D6
:108270000012184670470121C160881E704742688D
:108280005AB1C368016843B983688B4205D0491E5F
:10829000521CC0E90012002070474FF0FF307047B9
:1082A0002DE9F05F82460078002715468B460AF1DB
:1082B0000104B946302801D09DB113E014F8010B38
:1082C0000127782803D0582801D045B10AE00DB124
:1082D000102D07D10027102514F8010B02E0082506
:1082E00000E00A250026B0460EE005FB080005FB6D
:1082F00006F1012701EB10461FFA80F8B6F5803F22
:1083000000D3B94614F8010B2946FFF786FF002871
:10831000EBDABBF1000F05D00FB1641E00E054464C
:10832000CBF80040B9F1000F06D002F057FB022154
:108330000160C81EBDE8F09F48EA0640FAE7002940
:10834000A8BF7047401C490008BF20F001007047DB
:1083500010B4B0FA80FC00FA0CF050EA010404BF3B
:1083600010BC704749B1CCF1200421FA04F411FA91
:108370000CF118BF012121430843A3EB0C01CB1DD5
:108380004FEA00614FEA102042BF002010BC704746
:1083900000EBC35010440029A4BF10BC7047401C20
:1083A000490008BF20F0010010BC704710B5141E32
:1083B00073F1000408DA401C41F1000192185B419E
:1083C0001A4301D120F0010010BD2DE9F04D924675
:1083D0009B4611B1B1FA81F202E0B0FA80F220328C
:1083E0009046FFF7FDFE04460F4640EA0A0041EAC8
:1083F0000B0153465A46084313D0114653EA010075
:1084000019D0C8F140025046FFF72DFB05460E4635
:10841000504659464246FFF7E3FE084305D0012087
:1084200004E020463946BDE8F08D0020054346EAC9
:10843000E0762C4337430A986305E40AA0EB080072
:108440000022FD0A44EA47540A3002D500200146C2
:10845000E9E7010510196941DDE90845001969419D
:10846000BDE8F04DA2E72DE9FE4F804681EA03000A
:10847000C00F0C46009021F0004123F00045B8EBFE
:108480000200A94105D24046214690461C460B46B3
:10849000024623F00040104347D0270DC7F30A00DF
:1084A000C3F30A510290401A019040286BDAC3F3DB
:1084B000130040F4801B0098924620B10023D2EBB9
:1084C000030A63EB0B0B01985946C0F1400250467A
:1084D000FFF786FE06460D4650465946019A00F0C3
:1084E00093F810EB08006141002487EA115284EAF6
:1084F000E7731A4340D0009A62B3019A012A4FEA07
:10850000075215DC001B61EB02014FF0004202EA4A
:108510000752CDE90042001C41F5801132462B463E
:10852000FFF753FF03B0BDE8F08F40462146F9E75F
:10853000001B61EB0201001C41F5801300185B4138
:108540002018A2F5001747EB030140EAD570B619D1
:108550006D4111E06D084FEA360645EAC0754FEAF5
:108560000752001B61EB0201001C41F58011490814
:108570004FEA30000019514132462B4603B0BDE8A6
:10858000F04FFFF713BF0098012240000023D0EB0B
:10859000020263EBE073009821464FEAE074B8EB07
:1085A000000061EB0401E9E783F000435BE781F041
:1085B000004158E7C1F30A52C1F3130140F2FF33FF
:1085C00041F480119A4202DA00200146704740F2DD
:1085D00033439A42A2F2334202DC5242FFF743BADB
:1085E000FFF7FEBD064C074D06E0E06840F00103D2
:1085F00094E8070098471034AC42F6D3FFF79CF993
:108600000CFF03082CFF0308202A06DBCB17203AB7
:1086100041FA02F043EAE07306E041FA02F3D04087
:10862000C2F1200291400843194670472DE9F34FEB
:108630008BB04FF0000801F10C000C464FF0010B1D
:1086400046460DF1080A01906269012101989047A0
:10865000051E2DD0252D2CD0216A8847C0B1626916
:10866000012101989047216A88470028F7D1411ECF
:1086700062690198904700E0761CA1690B988847D1
:10868000216A88470028F7D1E1690B988847DBE722
:10869000A1690B9888470746A84201D1761CD3E709
:1086A000E1690B9888477F1C02D1B8F1000F6FD0A9
:1086B00047E1002762693D463946019890472A28DC
:1086C00004D162690121019890470125DFF8889261
:1086D0006269012101989047A0F130010A290AD26C
:1086E0004F45E5DC07EB870100EB4107303FDFD466
:1086F00045F01005ECE7E90601D46FF000476C285F
:108700000AD04C2814D0682815D06A280DD07428B7
:108710001CD07A281AD01DE0626901210198904787
:108720006C2802D045F0040514E045F002050DE088
:1087300045F020050AE06269012101989047682808
:1087400002D045F0080505E045F4006562690121A5
:1087500001989047C4E9015765283DD019DC582895
:108760007AD00CDC452837D004DC252826D04128D7
:1087700031D131E046282FD047282CD12CE05B287E
:1087800077D0612828D063287CD0642823D15AE090
:10879000D1E06F2848D008DC66281DD067281BD0A0
:1087A000692821D06E2816D127E0702845D073287B
:1087B00068D0752847D078280DD14DE0A1690B9875
:1087C0008847054625283FF469AFE1690B9888473B
:1087D0006D1C3FF46AAFB4E023466A466FF00100B7
:1087E0000B99AFF300809FE045F040006060A80760
:1087F00023464FF0000236D43EE0E8077FF447AF4F
:108800002068011D21600068290501D506701BE75D
:10881000290701D5068017E7A90703D5F117C0E995
:10882000006111E706600FE745F040006060A807AF
:1088300023464FF0080216D41EE040F60E0125EA4A
:108840000100606016E045F040006060A807234624
:108850004FF00A0207D40FE045F040006060A8071F
:1088600008D5234610226FF001000B99AFF300806A
:108870005AE007E0234610226FF001000B99FFF742
:10888000B9F951E04FF000094F464B46632802D03A
:108890005B2807D041E02079C00601D40120A06008
:1088A00001273AE062690121019890475E2805D1CD
:1088B0004FF001096269494601989047216939B929
:1088C00000210A46534643F82120491C0829FADBB7
:1088D000B0B3216969B9C11700EBD16253110AEB3A
:1088E000830122F01F02821A01200B68904003438B
:1088F0000B6062690121019890475D28E8D1B9F1C8
:10890000000F09D00020514651F82020D24341F8F1
:108910002020401C0828F7DB02AB224600976FF0AE
:1089200001000B99AFF3008000280CDA401C08D13D
:10893000BBF1000F05D04FF0FF300DB0BDE8F08F58
:10894000FFE74046F9E7E90701D108F101080644CD
:108950004FF0000B78E60000CCCCCC0C70B58C1836
:1089600010F8015B15F0070301D110F8013B2A1143
:1089700006D110F8012B03E010F8016B01F8016B30
:108980005B1EF9D12B0705D40023521E0DD401F82C
:10899000013BFAE710F8013BCB1A921C03E013F8F5
:1089A000015B01F8015B521EF9D5A142D8D300202A
:1089B00070BDFEE71CB5164C4FF0FF354FF47A76CC
:1089C00001A9684606F070FE2946206B2FF056FA82
:1089D000012815D19DF80000A0609DF80410E16009
:1089E0002169884204D3207810B104F0D3FE01E05D
:1089F00004F0C8FE00231A461946206B2FF016F922
:108A0000012001F02FFF30462EF042FED8E7000093
:108A10000000002030B590F840500124AC40C56BF8
:108A20006C60046863604368102B036803D099602E
:108A30000068C26030BD9A600068C16030BD704798
:108A400006490020C8610648016941F0040101613E
:108A5000016941F0400101617047000030040020CD
:108A600000200240064A0021D16106490A6942F00D
:108A700002020A614861086940F0400008617047DD
:108A80003004002000200240044B0022DA61044A36
:108A9000136943F001031361018070473004002023
:108AA0000020024014480022C168CB06134904D5B7
:108AB000CA6942F00202CA611022C3685B0705D589
:108AC000CB6943F00103CB6142F00402C369DB07C9
:108AD00007D0CB6943F00403CB61C16921F00101E8
:108AE000C161A2F58071013901D0C2607047C169CE
:108AF00021F00101C16170470020024030040020D4
:108B000070B5054600F0BEFB0646114C09E0681C36
:108B100007D025B100F0B6FB801BA84201D9032085
:108B200070BDE068C007F2D1E068800601D5202062
:108B3000E060E068C00605D4E069C00702D1E068E3
:108B4000400703D5FFF7AEFF012070BD002070BDC8
:108B50000020024030B5B3F5804F05D06FF0704172
:108B600040F82210002030BD8C690B688D682343CB
:108B70004C688989240144EA0524234343EA0141DE
:108B800050F82230014C23401943E9E70000F0CFB0
:108B900010B50A6850F8223023F0010340F8223063
:108BA0008C68082C23D000234A682243CC681C43DD
:108BB0000B6922431A434B690E4C1A43CB691A4383
:108BC0000B6A1A434B6A1A438B6A1A43CB6A1A43DD
:108BD0000B6B1A438B6913434A6B09681A4350F8AD
:108BE0002130A343134340F82130002010BD40231F
:108BF000DAE700007FFF0F0030B5D1E9003443EA27
:108C000004138C688D89240244EA054423430C8AAA
:108C1000074D00EB820005EB045423430C7D6D01EE
:108C200005EB0464896923430B434360002030BD96
:108C30000000F0FF30B585B000240546049400F034
:108C4000FFF90120CDE9025004A90094684600F024
:108C500059F9044600F0AAF905B0204630BD70B5B8
:108C60000C46054600F0ECF9224600232946022076
:108C700000F0A6F9044600F099F9204670BD10B541
:108C800090F821100022022905D00421816380F888
:108C90002020012010BD01680B6823F00E030B603B
:108CA00001680B6823F001030B6090F84030C46B3F
:108CB000012101FA03F3636080F8211080F820207D
:108CC000104610BD2DE9F05F90F821100024022914
:108CD00003D004218163012485E001680A6822F041
:108CE0000E020A6001680A6822F001020A603F4E23
:108CF0003E4FB215DFF8F4C0DFF8F090DFF8ECA0DB
:108D0000DFF8E8B0DFF8E4E00168783F130115020E
:108D1000ACF1640CA9F15009AAF13C0AABF1280BA3
:108D2000AEF1140E4FF48018B14227D9B9420ED0DB
:108D3000614512D049451DD0514518D0594518D02C
:108D4000714501D1424615E0294EB14201D10122BF
:108D500010E0274E1436B14201D110220AE0244E11
:108D60002836B14206D0224A3C32914201D11A46FD
:108D700000E02A461E49091F0A602BE0B94213D0C1
:108D8000614517D0494522D051451DD059451DD0C8
:108D9000714501D142461AE0B14202D14FF08072D2
:108DA00015E0134EB14201D1012210E0104E1436ED
:108DB000B14201D110220AE00D4E2836B14206D050
:108DC0000B4A3C32914201D11A4600E02A4607493B
:108DD00080394A60012180F82110002180F820109C
:108DE000416B01B188472046BDE8F09F80000240FA
:108DF0000804024030B560B11A4B026814219A424F
:108E000009D2194B1344B3FBF1F1890001641749EE
:108E10000AE0012030BD134B5B421344B3FBF1F178
:108E2000890001640F490839C163022180F82110CB
:108E3000136843F6F0718B43F0E901142143D0E944
:108E400002452C4321430469214344692143846939
:108E500021431943116000214163012242770177C8
:108E6000084630BD08040240F8FFFDBF0000024084
:108E700070B5044690F82000002501280CD0012090
:108E800084F8200094F821600020012E06D084F898
:108E900020000225284670BD022070BD022684F8FD
:108EA0002160A0632068066826F00106066020465F
:108EB000FFF7B0FDE06A00282068016802D041F0A9
:108EC0000E0106E021F0040101602068016841F014
:108ED0000A0101602068016841F001010160D9E7E1
:108EE00070B5044600F0CEF90546601C02D0044877
:108EF0000078044400F0C6F9401BA042FAD370BDCC
:108F0000700000202DE9F047054626480F4601264F
:108F1000017E01290FD00121814601762868DFF802
:108F200088804CF25034022808D0A2462046FFF731
:108F3000E7FDA8B131E00220BDE8F0872046FFF749
:108F4000DFFD08BB0120FFF77BFD2046FFF7D8FDC2
:108F5000D8F81010064621F00401C8F810101CE0E3
:108F60004FF0FF303860AC6811E02046FFF77AFD23
:108F70005046FFF7C5FDD8F81010060021F0020199
:108F8000C8F8101001D03C6007E004F50064D5E992
:108F9000020100EBC120A042E7D8002189F8181097
:108FA0003046C9E730040020002002400348016930
:108FB00041F0800101610020704700000020024064
:108FC0002DE9F05F07461C4888460024017E1546BF
:108FD0001E46012909D00121814601764CF2503A02
:108FE0005046FFF78DFD18B122E00220BDE8F09F4A
:108FF000012F02D0022F00D00427D346DFF83CA077
:10900000220128463146FEF72EFD81B208EB4400CE
:10901000FFF73AFD5846FFF773FDDAF8102022F00B
:109020000102CAF8102018B9641CE4B2BC42E7D3AC
:10903000002289F81820D9E73004002000200240DF
:10904000064900200A69120607D5054A4A60054A02
:109050004A600969090600D50120704700200240D6
:1090600023016745AB89EFCD2DE9F84FDFF8C891B3
:109070000024A9F1040B23460F2709F1040AABF1E0
:10908000040ED1E00125A54006EA0502AA4276D1E8
:10909000DFF8A8C14E68A6EB0C0866452BD00DDCA6
:1090A000032E34D005DC36B3012E19D0022E2FD179
:1090B0001BE0112E16D0122E2AD119E0B8F5881F08
:1090C00019D006DCB8F5803F15D0B8F5801F1FD148
:1090D00011E0B8F5001F0ED0B8F5041F18D10AE052
:1090E000CB6815E0CB681B1D12E0CB6808330FE09E
:1090F000CB680C330CE08B682BB1012B4FF00803CD
:1091000003D0456104E0042302E0056100E0002390
:10911000FF2A01D8064601E000F104064FEA840563
:1091200001D9A5F12005D6F8008007FA05FC28EA48
:109130000C0803FA05F548EA0508C6F800804D68F2
:10914000ED0070D53E4DAE6946F00106AE61AD69E9
:1091500024F0030605F0010500953A4D06EB050CD9
:10916000DCF80850A607360F07FA06F825EA0805C6
:10917000DFF8D480404503D14FF0000825E052E0ED
:10918000DFF8C880404502D14FF001081DE0DFF84C
:10919000C080404502D14FF0020816E0DFF8B480ED
:1091A000404502D14FF003080FE0DFF8AC804045A6
:1091B00002D14FF0040808E0DFF8A080404502D15A
:1091C0004FF0050801E04FF0060808FA06F848EAF3
:1091D0000508CCF808804D68D9F80060ED024D46CE
:1091E00001D5164300E096432E604D68DAF8006022
:1091F000AD02554601D5164300E096432E604D68FA
:10920000DBF80060AD035D4601D5164300E09643F0
:109210002E604D68DEF80060ED03754601D51643FB
:1092200000E096432E60641C0A681646E2407FF414
:1092300029AFBDE8F88F00000804014000001110BC
:10924000001002400000014000080140000C0140F5
:10925000001001400014014000180140001C0140B2
:109260008068084000D001207047C26821EA0203EC
:109270000A4043EA0241016170470AB10161704747
:109280000904FBE701488068704700007000002077
:1092900070B5040013D021684CF6CC4008602168FA
:1092A00045F255500860D4E9000141602168A0688A
:1092B0008860FFF7E7FF054641F23C360DE00120EC
:1092C00070BD00BFFFF7DEFF401BB04205D920682C
:1092D000C068800701D0032070BD2068C068800787
:1092E000F0D121684AF6AA200860002070BD00680D
:1092F0004AF6AA21016000207047000002488168F8
:10930000027811448160704770000020074810B552
:10931000016841F010010160032000F093F80F2074
:1093200000F006F800F04AF8002010BD00200240CE
:1093300030B505461C4887B0816941F40061816100
:10934000806906A900F40060009001A800F034F9DB
:1093500000F062F91549164AB0FBF1F11548491EB3
:109360000260416040F2E7320021C0E903218160E0
:10937000816100F083FB040012D10E4800F0ACFBC9
:1093800004000DD1192000F02FF8102D07D2002273
:109390002946192000F036F80748056000E001244E
:1093A00007B0204630BD00000010024040420F00D0
:1093B000002C0140E803002074000020094808B593
:1093C000816941F001018161816901F00101009130
:1093D000C16941F08051C161C06900F080500090C6
:1093E00008BD000000100240002809DB00F01F0249
:1093F000012191404009800000F1E020C0F80011F7
:1094000070470000F0B40E4B1B680C46C3F30223F8
:10941000C3F10705042D00D90425191D072901D220
:10942000002300E0DB1E012606FA05F1491E21405B
:1094300099409E40761E16403143F0BC01F0BEBA02
:109440000CED00E0064900F0070208684FF6FF0344
:10945000184040EA0220034A1043086070470000A9
:109460000CED00E00000FA05BFF34F8F05480168DE
:10947000054A01F4E06111430160BFF34F8F00BF63
:10948000FDE700000CED00E00400FA052DE9F047CF
:109490000F46050061D0434E306800F00700B84227
:1094A00009D2306820F0070038433060306800F09F
:1094B0000700B84251D128683B4C810712D54007BC
:1094C00003D5606840F4E06060602878000703D549
:1094D000606840F4605060606068A96820F0F00047
:1094E000084360602878C00728D06868012810D039
:1094F0002168022810D0890700292EDA616821F03E
:10950000030101436160FFF7BDFE804641F28839E7
:109510000DE021688903EFE78901EDE7FFF7B2FE6F
:10952000A0EB0801494502D90320BDE8F087606837
:10953000696800F00C00B0EB810FEFD1306800F0EB
:109540000700B8420BD9306820F00700384330607C
:10955000306800F00700B84201D00120E5E7287824
:10956000400705D56068E96820F4E0600843606062
:109570002878000706D56068296920F4605040EA21
:10958000C100606000F058F86168084AC1F3031137
:10959000515CC8400649086006480068FFF7C8FEED
:1095A0000020C2E70020024000100240F8850308B6
:1095B0007C000020740000200F2202600C4A5368D7
:1095C00003F003034360536803F0F00383605368C0
:1095D00003F4E063C36052684FF4E06303EAD2022D
:1095E00002610448006800F007000860704700004E
:1095F0000010024000200240044805490068496804
:10960000044AC1F30221515CC84070477C0000202D
:1096100000100240088603080448054900684968AC
:10962000044AC1F3C221515CC84070477C0000204D
:1096300000100240088603080E4A51680E4801F0E7
:109640000C03042B11D0082B0FD10C48C1F383431A
:10965000C903C05C0AD55168084AC1F34041921E53
:10966000515C054A5043B0FBF1F070470449484350
:10967000704700000010024000127A00E8850308DD
:1096800000093D002DE9F84F040070D02078C04D4E
:10969000C00749D06868C0F38100012807D0686816
:1096A000C0F38100022809D16868C00306D5286884
:1096B000800339D560680028E7D035E06068B0F5F0
:1096C000803F0BD010B1B0F5A02F11D0286820F446
:1096D00080302860286820F4802002E0286840F468
:1096E00080302860606890B1FFF7CCFD06460AE044
:1096F000286840F480202860F0E700BFFFF7C2FD33
:10970000801B642873D828688003F7D50CE0FFF726
:10971000B9FD064605E000BFFFF7B4FD801B6428D5
:10972000F0D828688003F7D420789A4E80074FF04D
:1097300001094FF0000839D5686810F00C0F07D008
:109740006868C0F38100022809D16868C00306D4A4
:109750002868800714D52069012808D110E0206905
:10976000B0B1C6F80090FFF78DFD074605E00AE1AD
:10977000FFF788FDC01B0228C4D828688007F7D5EA
:109780002868616920F0F80040EAC10028600DE017
:10979000C6F80080FFF776FD074604E0FFF772FD8C
:1097A000C01B022823D828688007F7D42078000738
:1097B0002CD57948A169D9B1C0F80090FFF762FDB6
:1097C000074604E0FFF75EFDC01B02280FD8686A59
:1097D0008007F7D571484FF4FA510068B0FBF1F0FB
:1097E000009000BF0098411E0091FAD20EE080E088
:1097F000C0F80080FFF746FD074604E0FFF742FD92
:10980000C01B022875D8686A8007F7D42078400703
:1098100060D5E8690027C00008D4E86940F08050AE
:10982000E861E869012700F0805000905C48016819
:10983000C90513D40168834641F480710160FFF7C4
:1098400021FD824606E000BFFFF71CFDA0EB0A00E9
:1098500064284ED8DBF80000C005F5D5E068012883
:109860000AD008B1052813D0286A20F00100286228
:10987000286A20F0040002E0286A40F00100286213
:10988000E06841F2883B98B1FFF7FCFC82460BE0B0
:10989000286A40F004002862EEE700BFFFF7F2FC00
:1098A000A0EB0A0159455AD8286A8007F6D50CE082
:1098B000FFF7E8FC824605E0FFF7E4FCA0EB0A01B5
:1098C00059454CD8286A8007F6D41FB1E86920F0C2
:1098D0008050E861E06988B36968C1F381010229B9
:1098E00044D00228C6F8608004D0FFF7CBFC0446C1
:1098F00038E034E0FFF7C6FC074604E0FFF7C2FC9F
:10990000C01B02282BD828688001F7D4206AB0F544
:10991000803F05D16868A16820F400300843686082
:10992000D4E908010843696821F4741108436860A8
:10993000C6F86090FFF7A6FC044606E025E000BFED
:10994000FFF7A0FC001B022809D828688001F7D582
:109950001BE000BFFFF796FC001B022802D9032082
:10996000BDE8F88F28688001F4D40EE00128F7D014
:109970006868226A00F48031914204D1616A00F47F
:109980007010884201D00120EAE70020E8E70000DB
:109990000010024000004242800442427C0000204D
:1099A0000070004070B515460E46040007D0A0694F
:1099B000B0F5807F03D094F8410010B107E001209A
:1099C00070BD002084F84000204600F01DF804F12E
:1099D00008012068FFF7DCF83146A2682068FFF72D
:1099E0000BF9D4E901022946236BFFF7B3F8A1680C
:1099F000206850F8212042F0010240F82120012087
:109A000084F84100002070BD184800B5416985B058
:109A100041F480714161416901F48071049181696F
:109A200041F020018161816901F020010491816987
:109A300041F0400181618069694600F04000049076
:109A40004CF203700090022001900120029003204C
:109A500003900748FFF708FB4FF6807000906946B7
:109A60000448FFF701FB05B000BD000000100240F4
:109A700000140140001801407047704710B5040001
:109A800003D094F83D0010B107E0012010BD002084
:109A900084F83C00204600F01EF8022084F83D00C7
:109AA000211D206800F016FC012084F8460084F88F
:109AB0003E0084F83F0084F8400084F8410084F8B8
:109AC000420084F8430084F8440084F8450084F898
:109AD0003D00002010BD704790F83D10012901D0D5
:109AE00001207047022180F83D100168CA6842F0E9
:109AF0000102CA6000680E4988420ED00D498842B2
:109B00000BD0B0F1804F08D00B49884205D00B49EB
:109B1000884202D00A49884204D1816801F00701D5
:109B2000062903D0016841F001010160002070475F
:109B3000002C0140003401400004004000080040B7
:109B4000000C004070472DE9F04104460068C668EB
:109B500005694FF00007A90713D5B10711D5F91E04
:109B6000016101202077206880698007204602D0AB
:109B7000FFF7E8FF04E000F07EF8204600F07CF8F4
:109B80002777680716D5700714D521686FF0040091
:109B90000861022020772068806910F4407F204609
:109BA00002D0FFF7CFFF04E000F065F8204600F098
:109BB00063F82777280715D5300713D521686FF08C
:109BC00008000861042020772068C06980072046CB
:109BD00002D0FFF7B7FF04E000F04DF8204600F098
:109BE0004BF82777E80616D5F00614D521686FF0F4
:109BF00010000861082020772068C06910F4407FB9
:109C0000204602D0FFF79EFF04E000F034F8204623
:109C100000F032F82777E80708D0F00706D021686F
:109C20006FF001000861204600F028F8280608D5EA
:109C3000300606D521686FF0800008612046FFF7E6
:109C40001BFF680608D5700606D521686FF0400036
:109C50000861204600F01CF8A8060AD5B00608D511
:109C600021686FF0200008612046BDE8F041FFF751
:109C700004BFBDE8F08170477047000000680349E9
:109C8000884201D1FFF73ABB70470000002C014029
:109C90007047704770470000F8B5016804460868CF
:109CA000CA684B6910F00F0F4FF0000559D003F050
:109CB000010602F49077374365D0C10705D0D1057E
:109CC00003D5616C41F001016164410705D5D907F5
:109CD00003D0616C41F002016164810705D5D907A9
:109CE00003D0616C41F004016164010707D502F003
:109CF0002001314303D0616C41F008016164616C63
:109D000000293AD0800604D5900602D5204600F0FE
:109D1000E3FB20684069616CC0F38010090700D440
:109D200060B3204600F0A3FB20684069400621D5BF
:109D30002068143050E8001F21F0400140E8001274
:109D4000002AF5D1E06BA8B16D494163E06BFEF7E5
:109D5000B9FF002811D0E06B416B01B0BDE8F040C5
:109D6000084783060FD593060DD52046BDE8F84079
:109D700000F0B2BB2046FFF78DFFF8BD2046FFF78D
:109D800089FF6564F8BD266B2023012E7CD1C606B1
:109D90007AD5D60678D508684868009048694FF0AB
:109DA0000206400640D5E16B086840680004000CDC
:109DB000E8D0A28D8242E5D9E085886920282DD09F
:109DC00020680C3050E8001F21F4807140E8001238
:109DD000002AF5D12068143050E8001F21F001015D
:109DE00040E80012002AF5D12068143050E8001F26
:109DF00021F0400140E80012002AF5D184F84230F9
:109E0000256320680C3050E8001F21F0100140E865
:109E10000012002AF5D1E06BFEF731FF6663A08DDA
:109E2000E18D401A81B22AE0A08DE18D401A81B205
:109E3000E08D0028A6D00029A4D022680C3252E878
:109E4000000F20F4907042E80007002FF5D1206841
:109E5000143050E8002F22F0010240E80027002FC4
:109E6000F5D184F84230256320680C3050E8002F8B
:109E700022F0100240E80023002BF5D16663204653
:109E8000FFF707FFF8BDFFE705062BD5150629D517
:109E900094F841002128F5D1A068B0F5805F01D188
:109EA0002069B0B1206A411C2162216800784860B5
:109EB000E08C401E0004000CE084E3D12068C168FF
:109EC00021F08001C1602068C16841F04001C1609B
:109ED000D8E7206A0088C0F308004860206A801C28
:109EE0002062E5E74006CDD55006CBD5CA682046AE
:109EF00022F04002CA6084F8413000F0DBF8C1E78C
:109F000071A3000870B5040004D094F84100002546
:109F100010B106E0012070BD84F84050204600F0EA
:109F200023F8242084F841002068C16821F40051FE
:109F3000C160204600F032FB2068016921F49041A5
:109F400001612068416921F02A0141612068C168EE
:109F500041F40051C1606564202084F8410084F818
:109F600042006563002070BD30B585B000240094C8
:109F700001940294039400681449884224D114483F
:109F8000816941F480418161816901F480410491DA
:109F9000816941F00401816180690E4D00F0040087
:109FA00004904FF400700090022001900320039071
:109FB00069462846FFF758F82815CDE90004694698
:109FC00028460294FFF750F805B030BD0038014034
:109FD000001002400008014090F84230202B01D0D0
:109FE0000220704721B11AB10023036300F032BB95
:109FF0000120704790F84230202B01D0022070479A
:10A0000021B11AB10023036300F06CBB012070473B
:10A01000704770472DE9F843044690F84100984690
:10A0200016460D46202802D00220BDE8F88385B1EF
:10A030007EB100206064212084F84100FFF722F9FE
:10A04000A6848146E684A0682027B0F5805F02D010
:10A0500003E00120E9E7206910B12E4600250EE05B
:10A0600000260CE08021204600F057FBA8B9C6B1BD
:10A0700016F8010B21684860E08C401EE084E08CFB
:10A080004B464FF00002CDF800800028EAD14FF097
:10A090004001204600F041FB40B184F841700320AC
:10A0A000C3E735F8020BC0F30800E3E784F841701A
:10A0B0000020BAE77047FEE71CB500200127DFF853
:10A0C000ACA0019083463E460546009010215446C0
:10A0D0005046FFF7C5F8814608212046FFF7C0F833
:10A0E000804601212248FFF7BBF80446012F0DD11D
:10A0F000B9F1000F0AD12DF0E9FF0199401A1E288D
:10A1000004D303F03FFB2DF0E1FF01904F46012EF9
:10A1100010D1B8F1000F0DD12DF0D8FF0099401AE1
:10A120001E2807D31348007820B103F033FB2DF02D
:10A13000CDFF009046467DB9012C0DD12DF0C6FF14
:10A14000A0EB0B001E2807D30A48017861B100215B
:10A1500001702DF0BBFF83462546022000F082FBF4
:10A160000A202DF095FAB1E70121F1E7001801402E
:10A170000008014000000020054C4FF4FA75202132
:10A180002046FFF772F828462DF082FAF7E7000024
:10A19000000C0140054C4FF4FA7520212046FFF7D2
:10A1A00064F828462DF074FAF7E700000018014023
:10A1B00070B586B0174C00200290A06940F00800EE
:10A1C000A061A069202500F0080004900120CDE9DD
:10A1D00000500320104E039069463046FEF744FFBE
:10A1E000012220213046FFF748F8A06940F04000E6
:10A1F000A061A069094C00F04000049069460095F8
:10A200002046FEF731FF002220212046FFF735F8D7
:10A2100006B070BD00100240000C01400018014063
:10A2200008B504F009FD2DF051FF0024CDF8000021
:10A230002DF04CFF001BC82804D32CF067FE2DF036
:10A2400045FF044624F03CFD042000F00BFB1421E4
:10A2500068462DF001FFEBE7FEE7FEE7FDF796BB52
:10A26000FDF772BB2DF04CBC30B58FB0282168468D
:10A27000FDF736FC14210AA8FDF732FC0121080481
:10A28000CDE900100024029402250491CDE9075085
:10A290004FF4E01009906846FFF7F4F908B172B680
:10A2A000FEE70F20CDE90A054FF48060CDE90C40B0
:10A2B00002210AA80E94FFF7E9F8002801D072B62F
:10A2C000FEE70FB030BD70470148FFF73CBC00000F
:10A2D000E8030020F0B50268204C214D214E224FAA
:10A2E000224B4FF0804CA04209D0984207D06045E5
:10A2F00005D0A84203D0B04201D0B84204D122F028
:10A30000700E4A6842EA0E02A04209D0984207D075
:10A31000604505D0A84203D0B04201D0B84203D175
:10A3200022F44075CA682A434D6922F080022A430C
:10A3300002608A68C2620A688262A04201D09842C2
:10A3400001D109690163012141610169C90703D094
:10A35000016921F001010161F0BD0000002C014004
:10A360000004004000080040000C004000340140A0
:10A3700010B5406A0021C185C184FFF78BFC10BD78
:10A3800070B5446A2068406994F84110C0F3C01069
:10A390000025212904D118B1E584204600F08EF86B
:10A3A0002068406994F84210C0F38010222904D13B
:10A3B00018B1E585204600F05AF8606C40F01000B6
:10A3C00060642046FFF766FC70BD10B50146406A28
:10A3D000096809684FF0000289062ED4C285016819
:10A3E0000C3151E8003F23F4807341E80034002C25
:10A3F000F5D10168143151E8003F23F0010341E831
:10A400000034002CF5D10168143151E8003F23F0ED
:10A41000400341E80034002CF5D1202180F842109F
:10A42000016B012909D101680C3151E8003F23F08B
:10A43000100341E80034002CF5D14263016B01297F
:10A4400002D0FFF7E5FD10BD818DFFF722FC10BDA6
:10A4500010B5406A01214163016B012902D0FFF769
:10A46000D8FD10BD818D4908FFF713FC10BD0168B0
:10A470000C3151E8002F22F4907241E80023002BA8
:10A48000F5D10168143151E8002F22F0010241E8B2
:10A490000023002BF5D1016B012909D101680C3192
:10A4A00051E8002F22F0100241E80023002BF5D1E3
:10A4B000202180F8421000210163704701680C31AF
:10A4C00051E8002F22F0C00241E80023002BF5D113
:10A4D000202180F84110704708B590F842102229D9
:10A4E00001D0022008BD82684FF480539A4201D106
:10A4F000016921B1816A9A421BD04AB10AE002681F
:10A50000816A5268C2F308020A80816A891C08E0E5
:10A51000026972B10268526802F07F020A70816AB1
:10A52000491C8162C18D491E0904090CC18503D0F3
:10A530001BE002685268F1E70168CA6822F0200255
:10A54000CA600168CA6822F48072CA6001684A69F8
:10A5500022F001024A61202180F84210002141636B
:10A56000026B012A03D0FFF753FD002008BD0163F1
:10A5700001680C3151E8002F22F0100241E800235D
:10A58000002BF5D101680A68D20602D50A6849682D
:10A590000091818DFFF77DFBE7E7000070B5044671
:10A5A00000680169E26821F44051114301612169A9
:10A5B000A0680843616908432168CA6841F20C63D6
:10A5C0009A430243CA6020684169A26921F440713C
:10A5D000114341611E492068884202D1FFF71CF8EF
:10A5E00001E0FFF709F800EBC00101EB0012606821
:10A5F00064218000B2FBF0F3B3FBF1F36FF01806B7
:10A600007343B2FBF0F5B2FBF0F605EB83053223A2
:10A6100003EB0515B5FBF1F5B6FBF1F605F0F0051A
:10A6200005EB0615B2FBF0F6B2FBF0F0B0FBF1F073
:10A630006FF01802504306EB800003EB0010B0FBF4
:10A64000F1F0216800F00F002844886070BD000020
:10A650000038014038B581620446828500201346E7
:10A660006064222284F84220E56B1B4AAA62E56BF3
:10A670001A4AEA62E56B1A4A2A63E26B50630A4699
:10A680002168E06B091DFEF7F3FB20680168406854
:10A690000090206948B120680C3050E8001F41F458
:10A6A000807140E80012002AF5D12068143050E88B
:10A6B000001F41F0010140E80012002AF5D1206896
:10A6C000143050E8001F41F0400140E80012002A19
:10A6D000F5D1002038BD0000CBA3000851A400082C
:10A6E00081A3000881628285C28500214164222104
:10A6F00080F84210016921B10168CA6842F4807291
:10A70000CA6001684A6942F001024A610068C16892
:10A7100041F02001C160002070472DE9F8439846C0
:10A7200017460D460446089E24E0701C22D0FEF712
:10A73000A9FDA0EB0800B0421AD8CEB12068C168CC
:10A74000490717D5802D15D0402D13D00168C94376
:10A7500009070FD401680025406800902046FFF7E4
:10A7600086FE0820606484F840500120BDE8F8832C
:10A770000320FBE72068006835EA000004D00020D1
:10A78000B842D2D00020F1E70120F9E70148FFF7F5
:10A7900083BA0000A80400202DE9F04385B02C48BE
:10A7A0000021049100680268D243D2063ED4894653
:10A7B00001684068009027480178B9BB8168A9B357
:10A7C0002349483109684968C1F500618EB2C188E2
:10A7D0008E4201D3721A02E0C1F50062324494B293
:10A7E000621EB2F5006F21D2C1F5006295B2A5429A
:10A7F00000D92546164A80468C3211442A4616480E
:10A80000FDF747F9144FAC4205D9621B7819A7F53B
:10A810000061FDF73EF907F80490A8F80240A8F897
:10A82000066004A9D8F808002DF07CFA0848FFF764
:10A8300033FA0498002807D008494FF08050086088
:10A84000BFF34F8FBFF36F8F05B0BDE8F0830000FB
:10A85000F0040020DC0000207C0D002004ED00E06E
:10A86000FEE7000010B504462DF030FC0649E20773
:10A8700000D04865A20700D58865620700D5C86585
:10A88000220700D5086610BD000000201CB52DF081
:10A890001DFC41F288350190294601A82DF0DCFB12
:10A8A000154C40F6B83642F6E0684FF47A7700BFB0
:10A8B0002DF00CFC616DA26D411AE36D821AD4F883
:10A8C00060C0C31AA0EB0C00A9420DD8B2420BD84D
:10A8D000B34209D8404507D80848FEF708FD394675
:10A8E00001A82DF0B9FBE3E7009005A000F028F8DF
:10A8F00038462CF0CDFEFBE700000020DC030020F2
:10A90000495744473A207374616C65207461736BD6
:10A910002C20616765286D7329204448543D256CBF
:10A9200075204B45593D256C75204C56474C3D25AF
:10A930006C75205245504F52543D256C750D0A00E0
:10A940000FB4054B10B503A9044A029801F000FDAD
:10A9500010BC5DF814FB0000B17F0108D40000209A
:10A960000FB47CB50C0009AD01D0611E00E00021E0
:10A97000CDE90001064B6A462946089801F0E8FC3B
:10A98000002C02D0009A002111707CBC5DF814FBF1
:10A9900057CA00080FB4084B10B504A902AA0398BF
:10A9A00001F0D6FC044602A9002002F05FF8204620
:10A9B00010BC5DF814FB00006DCA00080907090E01
:10A9C000002804DB00F1E02080F80014704700F05C
:10A9D0000F0000F1E02080F8141D70470048704718
:10A9E0009003002002E008C8121F08C1002AFAD113
:10A9F00070477047002001E001C1121F002AFBD1FF
:10AA0000704770B5044600256FF02F0608E02068F7
:10AA1000411C2160007805EB850106EB41014518DA
:10AA20002068007800F0C6F80028F0D1284670BDF4
:10AA30002DE9FF5F82B00021DDE90430020DDDF871
:10AA400040B0034318D044F61050A2F2FF32424304
:10AA50001514119801281FD0A5EB0B00401C5FEACC
:10AA6000000A4FF000064E4FDFF83891B0465046CE
:10AA700015D5CAF1000413E0119801244AA3012856
:10AA800001D16FEA0B010298119AC0E90031C0E9C7
:10AA9000024206B0BDE8F09FCBF10000DFE70446BC
:10AAA0000021404A491842EB0450CDE9001012E061
:10AAB000E00707D032463B4640464946FDF70FFACD
:10AAC0008046894632463B4610461946FDF707FA4E
:10AAD00006460F466410002CEAD1DDE90401DDE9E9
:10AAE0000023BAF1000F06DAFDF7F9F942464B46AA
:10AAF000FDF7F5F905E0FDF764FA42464B46FDF730
:10AB000060FA04460E460022284BFDF73BFB03D8B3
:10AB10004FF0FF30014607E00022254B204631462A
:10AB2000FDF7A1FCFDF746FD102409E0002C0ADB2F
:10AB30000A220023FCF766FF039B30321A55641E7D
:10AB400050EA0102F2D1641C039AC4F111031444C7
:10AB5000119A012A03D0012208430DD10AE00843CB
:10AB600004D000204FF0110B119072E7A3EB0B05FE
:10AB70006D1E0DE05B4504DD4FF0000205F101059F
:10AB800004E003DA4FF00002A5F10105002AECD041
:10AB900002981199C0E90231C0E9004579E7000047
:10ABA000000014400000F03F300000000000F043BF
:10ABB0000000E03F3038092801D80120704700200C
:10ABC0007047000010B54421074800F082FE0022C3
:10ABD0001E21064824F042F8054CA06002F0DEFA7F
:10ABE0000020207010BD0000E4AB002051D200080E
:10ABF000F80200202DE9F0470E468146174611461F
:10AC0000304600F011F900287ED000223946304647
:10AC100000F0B6F800284FF0000076D1B6F904C075
:10AC2000B6F90030F288ACEB03010FFA81FAB6F9FD
:10AC30000210B7F80280521AA8EB01080FFA88F840
:10AC400012B2B8F1000F0EDD63F30F046CF30F05C1
:10AC500001EB080061F31F4460F31F45C9F8004091
:10AC60000120C9F80450B7F906107388CB1AD21A1C
:10AC700012B2002A13DDB6F9063099420FDA338892
:10AC800063F30F04B38861F31F4463F30F051144AA
:10AC900061F31F4509EBC001401C0C604D60B7F922
:10ACA0000220B6F902108A4200DD1146B7F90630DB
:10ACB000B6F90620934200DA1A463B88B6F900C07E
:10ACC000521AA3EB0C031BB212B2002B10DD002AA8
:10ACD0000EDD634463F30F058B1863F31F456CF3BC
:10ACE0000F0409EBC00361F31F441C605D60401C4E
:10ACF000B7F904703388FE1AAAEB06031BB2002BC7
:10AD000011DD67F30F0401E00FE00CE061F31F4475
:10AD10003B4463F30F05114461F31F4509EBC00188
:10AD2000401C0C604D60BDE8F0874FF0FF30FAE743
:10AD300070B5B1F90030B2F90040A34200DC2346FF
:10AD40000380B1F90250B2F90240A54200DD2C4661
:10AD50004480B1F90460B2F90450AE4200DA3546DD
:10AD60008580B1F90610B2F90620914200DB114648
:10AD7000C1800120AB4201DC8C4200DD002070BDAF
:10AD8000F8B50D460446B0F90000B1F900101646BA
:10AD9000884247DBB4F90210B5F90220914241DB49
:10ADA000B4F90410B5F9042091423BDCB4F9061063
:10ADB000B5F90620914235DC96B3ADF80000608805
:10ADC000ADF8020032466946284600F099F800289E
:10ADD00027D0A088ADF800006088ADF802003246A8
:10ADE0006946284600F08CF800281AD02088ADF873
:10ADF0000000E088ADF8020032466946284600F0BF
:10AE00007FF800280DD0A088ADF80000E088ADF8EC
:10AE1000020032466946284600F072F8002800D049
:10AE20000120F8BD0020F8BDB0F90020B1F90430D0
:10AE30009A4213DCB0F90420B1F900309A420DDBDC
:10AE4000B0F90220B1F906309A4207DCB0F90600E9
:10AE5000B1F90210884201DB0120704700207047E1
:10AE6000F8B50D460446B0F90400B1F900101646D5
:10AE7000884243DBB4F90600B5F9021088423DDB95
:10AE8000B4F90000B5F90410884237DCB4F90210B7
:10AE9000B5F90620914231DC76B3ADF80000608848
:10AEA000ADF8020032466946284600F029F818BB82
:10AEB000A088ADF800006088ADF80200324669460F
:10AEC000284600F01DF8B8B92088ADF80000E088E9
:10AED000ADF8020032466946284600F011F858B92C
:10AEE000A088ADF80000E088ADF80200324669465F
:10AEF000284600F005F808B10020F8BD0120F8BD93
:10AF00002DE9FC4114460E46B1F90020B0F90010BD
:10AF100005468A423ADBB5F90400824236DCB6F9CE
:10AF20000270B5F90220974230DBB5F906309F4236
:10AF30002CDC002C75DD401A9A1A401C521C00B201
:10AF400012B200EBD07002EBD2724010521090425D
:10AF500000DB1046844200DD0446ADF8001028886E
:10AF600000222044ADF804006888ADF8020068882B
:10AF700031462044ADF806006846FFF7C1FF40B1F6
:10AF8000BDF804002044ADF804003FE00020BDE817
:10AF9000FC81E8880022001BADF80200E888ADF8CB
:10AFA000060031466846FFF7ABFF28B1BDF8040044
:10AFB0002044ADF8040011E0A8880022001BADF881
:10AFC0000000A888ADF8040031466846FFF798FFF6
:10AFD00050B1BDF80000001BADF80000BDF8020044
:10AFE000001BADF8020016E06888ADF80200688822
:10AFF00000222044ADF8060031466846FFF780FF86
:10B0000070B1BDF80000001BADF80000BDF80600EF
:10B010002044ADF806003146684621F0EBFAB6E769
:10B02000FFE70120B3E710B5B1F90040B2F90030F5
:10B030009C4200DA23460380B1F90240B2F90230A3
:10B040009C4200DA23464380B1F90440B2F904304F
:10B050009C4200DD23468380B1F90610B2F9062038
:10B06000914200DC1146C18010BD0000F8B50746D2
:10B0700023F0A2FD0025374C0646009537B1F8684D
:10B080006060384623F0B8FE606802E016F0CCFB42
:10B090006060006921F0AAF96068406908B121F098
:10B0A000A5F96068C06921F0A1F96068006A21F023
:10B0B0009DF96068016991B121F050FB27F010FF04
:10B0C00027F03AFC6068B0F85011D9B30068017CF1
:10B0D000C9071DD0C0684068D0B1002713E0A0F8B0
:10B0E0005051F8BDC11991F8301151B900F5AC704B
:10B0F00000F046FC616801EBC7010A6B0260496B16
:10B1000041607F1CBFB26068B0F85011B942E9D805
:10B1100060684FF4807130301CF0DCFD60682021E5
:10B1200000F598701CF0D6FD6068A0F850513046CC
:10B1300023F03CFD009060680068436A13B1226808
:10B14000009998471CF044FC00F032F8BDE8F84044
:10B1500000F002B8C001002070B50A4D002400BF05
:10B16000C4EBC40655F8260008B11CF0A5FC05EB9D
:10B1700086001C211CF0AEFD641CE4B2042CEFD34D
:10B1800070BD0000C0AC0020084949680AE04A6868
:10B19000824202D00A68824203D10A7E42F0010252
:10B1A0000A7649690029F2D1704700009401002015
:10B1B000704700000421014800F08BBBD8AB002091
:10B1C0002021014800F085BBF0AB00202DE9FF41B4
:10B1D0000446DDE90A671D004FF0000002D1B6F514
:10B1E000807F2BD0039001900290ADF80C1000905E
:10B1F000ADF80410ADF80A20ADF80E203B463246FB
:10B200002946684621F056F93B463246294601A8B0
:10B2100021F050F93B463246294602A821F04AF96E
:10B220003B463246294603A821F044F9BDF9000007
:10B23000BDF90430984209DA054608E02080491E2D
:10B240006080A180521EE280BDE8FF811D46BDF9ED
:10B250000820BDF90C108A4201DA164600E00E46BD
:10B26000B54203DA984206DB184604E08A4201DA66
:10B27000104600E00846801E2080BDF90030BDF970
:10B280000420934201DD1D4600E01546BDF908008B
:10B29000BDF90C10884201DD064600E00E46B542BD
:10B2A00005DD934201DD194604E0114602E08842C3
:10B2B00000DD0146891CA180BDF90230BDF90620E0
:10B2C000934201DA1D4600E01546BDF90A00BDF9BA
:10B2D0000E10884201DA064600E00E46B54205DA55
:10B2E000934201DA194604E0114602E0884200DA8E
:10B2F0000146891E6180BDF90230BDF906209342E6
:10B3000001DD1D4600E01546BDF90A00BDF90E102D
:10B31000884201DD064600E00E46B54205DD934257
:10B3200001DD194604E0114602E0884200DD0146D5
:10B33000891CE18088E700002DE9F04115460E46A2
:10B340000746114C23F038FC80462B4632463946DE
:10B3500020461AF033FC20B10020A062E06950B111
:10B3600010E02C2120461CF0B5FC4FF00040A062FC
:10B370000020BDE8F081404623F018FCE06108B9E8
:10B380000120E0612046F4E714AC002010B5142140
:10B39000074800F09EFA1AF0D7FB40B1054901605A
:10B3A00005494160054981600549C16010BDFEE75E
:10B3B000FCAB0020215502089D580208695A02087A
:10B3C000ED54020870B50D460446102128461CF0C5
:10B3D00081FC20680078012804D0022807D00428C6
:10B3E00007D008E0A08A2880E08A688003E0E0684F
:10B3F00000E00A20686020684268002A03D02946DD
:10B40000BDE87040104770BD2DE9FE430446808AB8
:10B4100010B9E08A002873D0D4F82C805FEA0800C5
:10B4200010D120460CF05DF85FEA000868D0204695
:10B430000FF0E0F800220921404619F0C3FA6078C5
:10B4400080075DD44FF4807900274E4645460021A1
:10B4500028461FF0A9F8384407B2002128461FF0FB
:10B46000C1F8C11700EB11600012704306B2284604
:10B470001EF098F80500EAD10FB94E450CD078427D
:10B4800001B24FF4803090FBF6F002B26B4604F14B
:10B490001400009521F00EF8ADF80450ADF80850F6
:10B4A00094F8400000F00F000328404616D01EF02C
:10B4B000CBF9064640461EF081F803460C2000906A
:10B4C000B4F91610324640460AF05EFEADF80800A8
:10B4D00040461EF0C5F8C10713D018E01EF048F929
:10B4E000064640461EF0E4F8024603200090B4F9F8
:10B4F0001410334640460AF047FEADF80400E7E773
:10B5000036E0BDF90410002901DDADF804508107D3
:10B5100005D4BDF90410002901DAADF80450410743
:10B5200005D4BDF90810002901DDADF80850000769
:10B5300005D4BDF90800002801DAADF8085002AAC8
:10B5400001A9204628F05CF8BDF90820BDF90410D7
:10B55000404600F08AFA6078800709D4208BBDF855
:10B56000041008442083608BBDF8081008446083F1
:10B57000BDE8FE832DE9FC5F0446C06A5FEA000B6C
:10B5800071D094F8400000076DD01AF0A9FD019029
:10B5900000684021457E58461FF050F94FF00008E2
:10B5A00018B9A4F81E80A4F81C8058461EF03EF975
:10B5B000824658461EF041F9064694F840004FF086
:10B5C000640900F00F000C2802D003284CD09AE048
:10B5D000A4F81C8056B1B4F91E5000271AF080FD63
:10B5E0000068407EC0F16401484622E0B4F91E00C4
:10B5F000C5F16401484390FBF9F0E08358461DF023
:10B60000DDFF054658461EF01FF902460C2000904B
:10B61000B4F91E102B4658460AF0B6FDE0830246E8
:10B6200000231EE07A1917B201FB05F292FBF0F23B
:10B6300015B2002DF6D1ADF80070A4F81E806A4650
:10B640000021204627F0DCFF41F6FF72BDF90030F3
:10B65000514258460CF0DCF8BDF8001001230844B4
:10B6600002B200214CE09AE0A4F81E80BAF1000F6B
:10B670000AD0B4F91C5000271AF032FD0068494680
:10B68000407EC0F1640022E0B4F91C00C5F1640101
:10B69000484390FBF9F0A08358461EF009F8054690
:10B6A00058461EF065F8034603200090B4F91C10BC
:10B6B0002A4658460AF068FDA083014600231EE092
:10B6C0007A1917B200FB05F292FBF1F215B2002DC8
:10B6D000F6D1ADF80070A4F81C800022694620461F
:10B6E00027F08EFF41F6FF72BDF9003051425846F7
:10B6F0000CF006F8BDF800100123084401B2002246
:10B70000584620F0CFF9A08B002848D1E08B0028C4
:10B7100045D1C6B958461EF097F8054658461DF063
:10B720004DFF002D06DC00280DDD002D02DA01237F
:10B730002A4604E0002806DA0123404202B2002132
:10B74000584620F0AFF9BAF1000F19D158461DF054
:10B75000AFFF054658461EF00BF8002D07DC002809
:10B760000EDD002D03DA01230022294605E0002822
:10B7700006DA01230022404201B2584620F092F935
:10B780000A215846019A19F01DF96078800706D4FD
:10B7900014F8400F20F00F00207044F8148CBDE81E
:10B7A000FC9F7FB50E46040003D116F03DF804005F
:10B7B0002CD016F0ADF8002828D094F828004007C7
:10B7C00024D4002506B3ADF80050ADF80250204651
:10B7D00016F042F8401EADF80400204616F082F83C
:10B7E000401EADF806006A46314602A8FFF7A0FAEF
:10B7F00000280BD02068017C890708D5DDE900010D
:10B80000C4E90C01012029E0A4F850517FBD8269F0
:10B810000AB102A9904700260AE004EBC601002203
:10B8200002A83031FFF7ACFA0028EFD1761CB6B28F
:10B83000B4F85001B042F0D880B2202804D204EB12
:10B84000C00002A9303004E0A4F8505104F13000E7
:10B85000694613F090FDB4F85001401CA4F8500163
:10B8600060680028D2D023F0D3FA7FBD70B50546BA
:10B8700000F012F804460CE02146284600F01EF8BD
:10B8800006462146284600F0A2F820461CF014F98E
:10B890003446002CF0D170BD002800D040687047BD
:10B8A00000B503460022FFF7F7FF03E01846521CDD
:10B8B00000F004F80100F9D1104600BD0068091D30
:10B8C00040587047006840587047002800D0806892
:10B8D000704700224260C91C21F0030182600160B0
:10B8E000704770B50446006808301CF059F8050030
:10B8F00013D001460022204624F06EFC2946204643
:10B90000626824F063FC616819B12A46204624F07D
:10B9100063FC6560A06800B9A560284670BD2DE98C
:10B92000F0410C4606000AD04CB1FFF7B5FFA0422B
:10B9300008D13046FFF7D5FF051E01D01EE00020DC
:10B94000BDE8F081306808301CF02AF8051EF7D0F9
:10B9500030682A4607593046394624F037FC3A46C3
:10B960002946304624F038FC2A462146304624F049
:10B9700033FC22462946304624F028FC2846DFE7DF
:10B9800070B50446006808301CF00AF8050013D0B2
:10B9900001460022204624F019FC29462046A268D0
:10B9A00024F01AFCA16819B12A46204624F00EFCA6
:10B9B000A560606800B96560284670BD28B141681F
:10B9C00009B9806808B1002070470120704770B540
:10B9D00004000DD0FFF760FF00228842204608D106
:10B9E000FFF76CFF6060011E01D000221EE0A26024
:10B9F00070BDFFF76AFF8842206808440AD10168D9
:10BA0000A16029B12046BDE87040002224F0DEBBD1
:10BA1000626070BD05682046FFF750FF064602468B
:10BA20002946204624F0D2FB2A4631462046BDE86E
:10BA3000704024F0D1BB10B50446006882680AB19A
:10BA40002146904720680068002801D02060F5E773
:10BA500010BD8068002801D0B0F9160070478068DA
:10BA6000002801D0807E8009704770B516460546D3
:10BA70000C4651EA06001AD028461CF099FEA86828
:10BA800001233246018A21440182A868418A314457
:10BA90004182214628461FF05DFA00220B212846EC
:10BAA00018F090FF012803D128461FF0ACF90120BF
:10BAB00070BD77B581B00E46050017D062221EF02A
:10BAC000A1FC040012D0206880B1284631466322D0
:10BAD0001EF098FC10F0FF0208D02368204603995E
:10BAE00098470090BDF80000ADF80C00039804B032
:10BAF00070BD00002DE9F047074692B0408C1A9EB9
:10BB000040F00800788490463A8499468A46328903
:10BB100038461EF077FC0546A7F82090328951463A
:10BB200038461EF06FFC0446788CA54220F00800D1
:10BB3000788403D12904B1EB044F68D0A7F82080A2
:10BB40003289514638461EF05DFC05468046A7F80E
:10BB50002090514638460DF07BFA318900682A461C
:10BB600021F076FF30890B2823D147F6FF794D4528
:10BB700001D04C451DD138461EF017FE00EBD070A9
:10BB8000451038461DF0CDFC00EBD0704010C84584
:10BB900006D1691C431C994200DA00E01946884628
:10BBA0004C4506D1691C421C914201DA6C1C00E034
:10BBB00014461948FFF795FE05002BD02F60C5E904
:10BBC00003843089A8806846C5F808A012F048FEB2
:10BBD0001248FF21CDE9005011480290114803900E
:10BBE00000200890CDE9090130880B9070889DF8FD
:10BBF000421040420C90F0680790002060F3000172
:10BC00008DF8421030690690684612F09DFE12B021
:10BC1000BDE8F087FEE7000008AC002031690308AA
:10BC2000196B0308756A030814210148FFF751BE18
:10BC300008AC00202DE9F84F0025904689460646BD
:10BC40002C460427E6E000BFF06807EBC40140582B
:10BC500081017CD480B230EA090112D05FF0000289
:10BC600030EA08000FD00020824270D0F0686A46A7
:10BC7000102150F83400824621F04CFC002871D18C
:10BC800003E00122ECE70120EEE76A46112150466D
:10BC900021F040FC002865D16A461221504621F06F
:10BCA00039FC00285ED16A461321504621F032FC4F
:10BCB000002857D16A461521504621F02BFC002858
:10BCC00050D16A461421504621F024FCF0BB6A464C
:10BCD0000A21504621F01EFCC0BB6A466B2150462B
:10BCE00021F018FC90BB6A466C21504621F012FCF2
:10BCF00060BB6A460121504621F00CFC30BB6A460D
:10BD00000421504621F006FC00BB6A460221504641
:10BD100021F000FCD0B96A460321504621F0FAFB1D
:10BD2000A0B96A460521504621F0F4FB70B96A4675
:10BD30000621504621F0EEFB40B96A4632215046BA
:10BD400021F0E8FB10B96A466E2101E00AE060E0EC
:10BD5000504621F0DFFB28B96A466D21504621F09C
:10BD6000D9FB10B10320BDE8F88F6A46692150461F
:10BD700021F0D0FBF0BB6A466A21504621F0CAFB95
:10BD8000C0BB6A466E21504621F0C4FB90BB6A4698
:10BD90006D21504621F0BEFB60BB6A4637215046FC
:10BDA00021F0B8FB30BB6A463821504621F0B2FB87
:10BDB00000BB6A463521504621F0ACFBD0B96A463B
:10BDC0004021504621F0A6FBA0B96A4645215046C5
:10BDD00021F0A0FB70B96A464121504621F09AFB40
:10BDE00040B96A464221504621F094FB10B96A4698
:10BDF000432100E009E0504621F08CFB28B96A4657
:10BE00004921504621F086FB08B1022501E005B921
:10BE10000125641C708CC0F30510A0423FF614AFDE
:10BE20002846A0E70148406870470000C001002094
:10BE30007047C0F30410072800D90720704700009E
:10BE4000A0F57F41FF3905D0002804D0712803D226
:10BE500008490AE01F2070470749713880B2096815
:10BE600029B1064A5268904201D2085C704700200E
:10BE70007047000068F50308240300203803002001
:10BE800010B518210348FFF724FD0349012008706D
:10BE900010BD0000B4AB0020400300202DE9F041AC
:10BEA00090460C46050015D0FBF74DFE0A4F06469E
:10BEB0002146BA68284690470446BA682819414680
:10BEC00090470146701A03E06218AA5C2A55641C68
:10BED000A042F9D2BDE8F081540300202DE9F041E1
:10BEE000094D90460E466A681C460746194690471B
:10BEF000306020B120686A68384400219047C8F853
:10BF00000000BDE8F0810000540300202DE9F04F4F
:10BF100087B08A46DDE910581F4693460446002143
:10BF200005B129805CB12078002809D0BAF1000F52
:10BF300005D0002618F0060F15D0002004E00020E0
:10BF400007B0BDE8F08F401C215C0A2904D00D2900
:10BF500002D00029F7D100E0401C002DF0D04FF0B6
:10BF6000FF312980ECE75FEA887001D541F6FF7761
:10BF7000894608468DF81410049127E00498CDF8FE
:10BF8000189068B34FF0000C05AA06ABCDF80CC0B2
:10BF9000CDF80080CDE9013220443B465A46514657
:10BFA00023F078F806997A1A314417B20EB288B1A4
:10BFB00004990144049120780A280BD00D2809D057
:10BFC000605C0A280FD00D280DD00846205C08B10F
:10BFD000002FD3DC049848B105B12E800498AFE758
:10BFE0004FF0010CD0E7481C0490F3E7064A04A97F
:10BFF000204652689047002DF0D00146002250465E
:10C0000018F0F4FD06B2E8E7540300202DE9F041F2
:10C010001746884606001ED0002F1CD0FBF793FD64
:10C0200004463846FBF78FFD050014D00B4A2C441C
:10C030004146926830469047411903E0621BB25C6A
:10C040003255641EA142F9D930442A463946BDE82A
:10C05000F0411BF001BEBDE8F08100005403002058
:10C0600000230278232902D0012A0DD00FE02AB143
:10C070000021012A04D0022A04D008E0012101E0B5
:10C08000017004E0017001E0202902D0012318466C
:10C0900070470221F6E72DE9F0410E468046024640
:10C0A00000213346084623F033FA04460027401C9B
:10C0B0001BF076FC050008D02F5533464246611C24
:10C0C00023F026FA2846BDE8F081FEE72DE9F04787
:10C0D0001E4614460D468246DDF8209015E000BF4E
:10C0E0004FEA540808FB0657394650464A469047DF
:10C0F000002808DD44F30000C0EB540407EB0605FC
:10C10000A4F1010401E005DA4446002CE8D1204600
:10C11000BDE8F0873846FBE72DE9FC5F9B460CAB9A
:10C120008A468146DDE9116093E81210DDE90F5778
:10C130005FEA80784FF030031AD45EB15FEAC078CE
:10C1400008D000F00C0858EA0C0803D0761E01E075
:10C150000B55641CBC4204D2202CF9D301E00B55D2
:10C16000641C5FEAC07803D0B44201D2202CF6D31D
:10C170005FEAC06825D55FEA40580AD44CB1BC429A
:10C1800001D0B44205D1641E03D0102D03D1641E2A
:10C1900004E0102D02D0022D0AD00EE0850603D453
:10C1A000202C1ED2782506E0202C1AD2582502E039
:10C1B000202C16D262250D55641C202C11D20B5553
:10C1C000641C202C0DD2BCF1000F01D02D2306E001
:10C1D000430701D52B2302E0030702D520230B558B
:10C1E000641CCDE900BAC846154681468B46AA466E
:10C1F000800714D1274607E02A46DDE900316D1C8F
:10C200002020C446E0477F1CB742F5D307E02A460A
:10C210006D1C641EDDE900311BF80400C047002CD2
:10C22000F5D15FEA897006D409E02A46DDE90031DC
:10C230006D1C2020C047A5EB0A00B042F5D328466C
:10C24000BDE8FC9F2DE9F04F8FB099468B46DDE9A4
:10C250001818DDE91C63DDE91A479246864600227C
:10C2600009B923F01003580507AD00D5C9B1B1FBDA
:10C27000F4F004FB1010C0B20A2801D2303009E0FB
:10C280005FEA836C02D54FF0410C01E04FF0610C86
:10C2900060440A38B1FBF4F1A854521C09B1202AB9
:10C2A000E5D3CDF80880CDE90563CDE90052CDE9AD
:10C2B00003474B46524659467046FFF72DFF0FB0D5
:10C2C000BDE8F08F2DE9FF4F8FB01CACDDE9239561
:10C2D00094E8030820AC94E8C004002450EA01026A
:10C2E00001D125F010056A050DF11C0802D550EAB0
:10C2F000010217D032463B46FBF784FBD2B20A2A32
:10C3000001D2303206E0AB0601D5412300E06123C3
:10C310001A440A3A08F80420641C50EA010201D0C9
:10C32000202CE7D3CDE90084CDF808B0CDE9059500
:10C33000CDE9036A0FAF97E80F00FFF7EDFE13B0EA
:10C34000BDE8F08F9A4200D28854704770470000D1
:10C350002DE9FF4F95B09A46884606460025EEE146
:10C36000252877D100242746F94A0121039400E0CB
:10C37000044316F8013F203B01FA03F01042F7D1C5
:10C3800030782A2811D06FF02F033078A0F13002D6
:10C39000092A16D8039A44F0020402EB820203EB46
:10C3A00042021044761C0390EFE758F8042B0392E6
:10C3B000002A03DA504244F40054039044F002048B
:10C3C000761C30782E2816D116F8010F44F004049C
:10C3D0002A280DD06FF02F023078A0F13003092BFE
:10C3E00009D807EB870302EB4303C718761CF3E772
:10C3F00058F8047B761C30786C280FD006DC4C286B
:10C4000017D068280DD06A2814D104E0742810D001
:10C410007A280FD10DE044F400140AE044F48014AB
:10C4200001E044F440147278824202D104F5801491
:10C43000761C761C307866280BD013DC582877D011
:10C4400009DC002875D04528F6D04628F4D04728C6
:10C450001AD193E118E0632835D0642879D0652893
:10C4600012D18BE1702873D008DC6728F1D06928DD
:10C470006FD06E280DD06F2806D1ACE073282CD079
:10C48000752874D0782853D05246179990476D1C60
:10C4900054E1C4F30250022809D003280DD0D8F883
:10C4A000001004280DD00D6008F1040846E1D8F80A
:10C4B0000010EA17C1E90052F6E7D8F800100D8025
:10C4C000F2E70D70F0E718F8041B8DF8001000205B
:10C4D0008DF80100EB46012003E058F804BB4FF053
:10C4E000FF3061074FF0000102D40DE009F10101B6
:10C4F0008946B9420FDA8145F8DB1BF8091000299B
:10C50000F4D108E009F1010189468142FADB1BF808
:10C5100009100029F6D103985346A0EB09072146DC
:10C520003846179A00F080FA284400EB090507E026
:10C5300044E008E10DE01BF8010B524617999047C3
:10C54000B9F10109F7D2534621463846179AF2E06D
:10C5500039E00A21C4F302524FF0000B0091022A85
:10C5600006D058F8040BC117032A09D00AE023E0CB
:10C5700008F1070020F00702F2E80201904605E00A
:10C5800000B2C117042A01D140B2C117002906DA4E
:10C590000A460021404261EB02012D2202E0220501
:10C5A00004D52B228DF80420012203E0E20701D0FC
:10C5B0002022F7E7914657E00A2100E010214FF0D2
:10C5C000000B00910BE010214FF0000B44F004042D
:10C5D0000827009103E008204FF0000B0090C4F3FF
:10C5E0000252022A05D058F8040B0021032A08D071
:10C5F00008E008F1070020F00702F2E80201904687
:10C6000003E080B2042A00D1C0B24FF00009220733
:10C610002AD53278702A07D0DDF800C08CF0100CD3
:10C620005CEA0B0C05D00EE040228DF804200122BC
:10C6300008E050EA010306D030238DF804308DF86D
:10C64000052002229146009B83F0080353EA0B0366
:10C650000AD150EA010201D1620705D530228DF8D6
:10C6600004204FF001097F1E3278582A04D039A2E5
:10C670000C920CAA02920BE03BA2F9E75B46009AEF
:10C68000FBF7C0F90C9B9B5C029A521E029213703E
:10C6900050EA0102F2D1029804A9081A00F1200B15
:10C6A000600702D524F4803400E001275F4502DDF5
:10C6B000A7EB0B0000E0002000EB0B0100900398BB
:10C6C0004944401A0390E00306D453462146179A82
:10C6D000039800F0A9F90544002706E001A8524696
:10C6E000C05D179990476D1C7F1C4F45F6DBE0033A
:10C6F0000CD553462146179A039800F095F9054446
:10C7000004E030205246179990476D1C0099481E4E
:10C7100000900029F5DC08E0029802995246007862
:10C72000491C0291179990476D1CBBF10001ABF1B8
:10C73000010BF1DC5BE100F065F90544761C307813
:10C7400000287FF40DAE19B02846BDE8F08F000038
:10C7500009280100303132333435363738396162D7
:10C76000636465660000000030313233343536379B
:10C77000383941424344454600000000600700D478
:10C78000062708F1070020F00700F0E802238046A2
:10C7900003F0004C5FEA0C0001D097A009E02005EF
:10C7A00001D596A005E0E00701D095A001E0AFF229
:10C7B0004C001390307823F0004365280CD006DC41
:10C7C000452809D046281DD047287FD13BE0662860
:10C7D00018D067287AD136E00021112F01DB112013
:10C7E00000E0781CCDE9000104A90CA8FEF720F9AF
:10C7F000DDE90D010C9A4FF0000B07F101091092D1
:10C8000000914EE04FF000400097CDE9011004A9DF
:10C810000CA8FEF70DF9DDE90D020C9B0F994FF006
:10C82000000B91461093009211B9791C00EB01099D
:10C83000B7EB090003D4C0F1FF3B07F10109A9EBF5
:10C840000700019042E0012F00DA01270021112F9B
:10C8500001DD112000E03846CDE9000104A90CA853
:10C86000FEF7E6F8DDE90D010C9A00914FF0000BA0
:10C87000B946109221070FD4009A4A4503DA91462F
:10C8800001E0A9F10109B9F1010F05DD109AA9F143
:10C890000101515C3029F4D0B84202DA10F1040FE2
:10C8A00003DA0121CDE9011010E0002803DC834404
:10C8B000A9EB000102E0411C494500DD8946A0EBDF
:10C8C0000B00401C01904FF000400290200705D45F
:10C8D0000198484502DB4FF0FF30019000208DF8B1
:10C8E0004B0002980DF14B07B0F1004F25D002200C
:10C8F0000C902B200D90029800280CDA40420290F8
:10C900002D200D9007E00A210298FBF753FC3031EF
:10C91000029007F8011D0C99481E0C900029F2DCCA
:10C9200002980028EFD1791E0D980870307800F039
:10C93000200040F0450007F8020D11A8C01BC01DE3
:10C9400002901398007800B1012000EB09010198D2
:10C9500001EBE071029801440398401A401E0390D5
:10C96000E00306D453462146179A039800F05CF87A
:10C9700005441398007818B15246179990476D1CDA
:10C98000E00323D553462146179A039800F04CF84C
:10C9900005441BE0BBF1000F07DB0098584504DDA0
:10C9A0001098179910F80B0001E0179930205246A3
:10C9B000904701980BF1010B401E05F10105019014
:10C9C00004D12E205246179990476D1CB9F10001F1
:10C9D000A9F10109DEDC05E017F8010B52461799B1
:10C9E00090476D1C0299481E02900029F4DC5346C2
:10C9F0002146179A03989EE62D0000002B000000A8
:10CA0000200000002DE9F041044600251E4617468F
:10CA1000880404D405E039462020B0476D1C641E0C
:10CA2000F9D52846BDE8F0812DE9F04104460025FE
:10CA30001E469046C80301D5302700E02027880411
:10CA400004D505E041463846B0476D1C641EF9D553
:10CA50002846BDE8F0814A68002A06D00A68531CBF
:10CA60000B6010704868401E486070470A68531C8D
:10CA70000B601070704700002DE9FF4F89B005462C
:10CA80000A9800249246002800D1FE4D8FE1252807
:10CA900004D02246641C53460A990BE2491C4FF00D
:10CAA000000808460C9101782B2919D004DC2029B4
:10CAB00019D0232904D119E02D290ED0302909D00D
:10CAC0000026C8B2FEF776F8B0B10CA8FDF799FFC2
:10CAD00006461FE048F001010AE048F0020107E0C5
:10CAE00048F0040104E048F0080101E048F01001BA
:10CAF000401C88460C90D6E70C9908782A2809D162
:10CB0000169840C81690002E02DA48F002087642C5
:10CB1000491C0C910C984FF0000B01782E2919D16B
:10CB2000401C0C9048F480680078FEF743F820B170
:10CB30000CA8FDF766FF83460CE00C9A10782A28B3
:10CB400008D1169901C91691002800DC0020521C5A
:10CB500083460C920C9801786C290AD004DC682971
:10CB60000FD06A2919D128E0742929D07A2914D143
:10CB700026E0401C0C90017848F480786C291CD089
:10CB80000BE0401C0C90017848F08008682904D123
:10CB900048F04001401C88460C9001460078692806
:10CBA00022D015DC62281FD00DDC252872D0502839
:10CBB0001AD058287FF46DAF16E048F40071E9E709
:10CBC00048F48071E6E7632879D06428F2D10BE05D
:10CBD000732875D004DC6F2806D07028EAD103E0F2
:10CBE000752801D07828E5D178280DD058280BD0A9
:10CBF00070280BD0502809D06F2816D0622816D084
:10CC00000A2228F0100016E0102207E048781022CF
:10CC100048F48878562804D1491C0C910878582883
:10CC200007D00878502804D006E0082209E0022244
:10CC300007E048F0200080460878692803D064287F
:10CC400001D028F00C085FEA485001D528F001080F
:10CC5000087869281FD064281DD0562864D05FEA60
:10CC6000885072D51698CDF818B0C01D0021CDE9B6
:10CC700004210291CDE9076820F007005346F0E84F
:10CC80000212CDE900121690224628460A99FFF7B3
:10CC900019FB88E009E15FEA885022D5169804AFB5
:10CCA000C01D20F00703F3E802011693002387E874
:10CCB0000C08CDE90768002903DA012202E07FE0D1
:10CCC000A6E00022002302921A461B1A8A4103DBC7
:10CCD0000022404262EB010153462246CDE90001A9
:10CCE000D3E75FEAC85004D5169901C90FE0404266
:10CCF00015E05FEA486003D5169911F8040B06E0C9
:10CD00005FEA0860F0D5169931F8040B00B216916D
:10CD1000CDE9022BCDE90468C10F0028E7DD5346B9
:10CD20002246CDE900013AE01699AAEB040201C9B6
:10CD3000169141680968009103680A98011928460C
:10CD4000FFF79AFE04442FE0FFE75FEAC8500CD5D6
:10CD5000CDE9022BCDE9046816980021534604C89A
:10CD6000CDE900211690224619E05FEA486003D51C
:10CD7000169810F8041B08E05FEA0860169803D5BF
:10CD800030F8041B89B200E002C8169001AF002001
:10CD9000009187E80508CDE90468534622462846F5
:10CDA0000A99FFF74FFA04460C98401C0C900C9916
:10CDB000087800287FF46BAE54457DD222467DE092
:10CDC00001275FEA887006D509E02246641C5346B5
:10CDD00020200A99A84738467F1CB042F5D3169800
:10CDE0002246641C10F804CB1690534660460A99FC
:10CDF000A8475FEA887006D4D6E72246641C5346EB
:10CE000020200A99A84738467F1CB042F5D3CBE7CB
:10CE1000169850F8049B16904B46BBF1000001D0C9
:10CE2000014601E04FF0FF31484600E0401C027827
:10CE30000AB1491EFAD2C71A5FEA485003D55846CC
:10CE40005F4500D307465FEA887006D511E02246A9
:10CE5000641C534620200A99A84738467F1CB042DC
:10CE6000F5D306E0224609F10109641C53460A99EC
:10CE7000A84799F8000040B15FEA4851F2D5BBF1EC
:10CE8000010B01E04DC30008ECD25FEA887006D4C4
:10CE90008AE72246641C534620200A99A847384650
:10CEA0007F1CB042F5D37FE706E02246641C534660
:10CEB00025200A99A84777E7AAF1010253460020E6
:10CEC0000A99A8470DB02046BDE8F08F10B50200C2
:10CED0004FF000000CD04B1E194200D0FEE70A4470
:10CEE000521E9A43B2F5804F02D20C2A01D9104645
:10CEF00010BD0C2010BD08444A1E401E9043114234
:10CF000000D0FEE7704700002DE9F0410F460121F7
:10CF10000025044641862E460BE01B49FAF71AFE0F
:10CF200010B16D1CADB202E0608E401C6086761CB4
:10CF3000B6B257F8260010B101780029EDD1208E45
:10CF4000A8421ED0A06A002610B11AF0B5FDA66254
:10CF5000E06A10B11AF0B0FDE662E8001AF020FDB8
:10CF6000A06238B168001AF01BFDE06218B1A16A36
:10CF700011B102E0FEE7FEE7002569001AF0AAFE03
:10CF80002586BDE8F081000084FD01082DE9F84FF9
:10CF90008146407A0F4600F00700022819D010465B
:10CFA0008046974200DD3A46164603202A4C2B4A1B
:10CFB00000EB460020F00305A06811681035411A07
:10CFC000636805EB010C9C4505D2416821F00041E6
:10CFD00024E00846E4E79D4219D892464FF0FF3B13
:10CFE00048196168884210D9002269461C48CDF86A
:10CFF00000B00DF0D9FE002269461A480DF0D4FEAB
:10D00000A168DAF80000091AEAE7A068DDE7284617
:10D010001AF0C6FCC0B1416841F0004188EA6702DD
:10D02000416089EA02010160416801F04041491C08
:10D0300031F0804141608681A0F80E8005D500F175
:10D0400010018160BDE8F88FFEE7A16801F11002D0
:10D0500029448260A160F5E7C80100202003002078
:10D06000D174010885AE010870B586B000224A4C23
:10D070008DF808208DF80C208DF81020E2888A4267
:10D0800001D0FF22A270E18090F83C20142302F02E
:10D0900003024FF4B475012A24D0022A5ED0A57889
:10D0A000AA4211D010F8265F05EB051505EB4505E2
:10D0B000B5FBF3F52570407800EB001000EB400065
:10D0C000B0FBF3F06070A27004AA03A8CDE90002DF
:10D0D00001EB41004FF6FF7101EA400002AB6278BC
:10D0E00021781BE0A678B24210D0868C06EB46066B
:10D0F0007602B6FBF5F5A58090F8270000EB00104E
:10D1000000EB4000B0FBF3F06070A27004AA03A82B
:10D11000CDE90002C9B202AB62783AE009F0F0FE54
:10D120009DF810109DF80C00CB08BDF800109DF87C
:10D13000082063F30401ADF800108108BDF8000079
:10D1400061F34A10D10880B261F3CF20ADF800003E
:10D1500080B20090BDF8000006B070BDA678B24263
:10D1600010D0868C06EB46067602B6FBF5F5A58058
:10D1700090F8260000EB001000EB4000B0FBF3F04D
:10D180002070A27004AA03A8CDE90002CAB22178D7
:10D1900002ABA088C2E700007402002010B5084C62
:10D1A000012020700748FEF777FB0028A06803D015
:10D1B000BDE8104021F02CBEBDE8104021F01CBE9F
:10D1C000F8020020E4AB002010B5044690F84200BD
:10D1D000A16B820709D4B4F840204AB1A2F57F437D
:10D1E000FF3B1BD0521EA4F84020B4F84020AAB93F
:10D1F00009B1820712D521461448FEF7E8FBFFF774
:10D20000CDFFE16809B120468847216909B1204670
:10D2100088472046BDE810401AF04EBCE26B5242EF
:10D220002263002911D0820702D4626B524222632A
:10D230004210521C62F3410084F84200A26A206A44
:10D240002262A062E06AE162A06310BDE4AB00204C
:10D2500070B5324D686821F0A9FC0646687880F008
:10D26000010068704BE00020287094F84200697853
:10D27000C0F380028A4246D061F3820084F8420003
:10D28000216B8A19030719D4002917DC002A15DB42
:10D29000C00709D1616939B120468847216A014434
:10D2A0002162A16A0844A062A16809B120468847AA
:10D2B00094F8420040F0080084F84200206B801986
:10D2C00020631AD4E16A884200DD2163E1692046C7
:10D2D00088470146606A884203D1D4E90B02824242
